:020000040800F2
:100000000007002029020008FB1300086111000806
:10001000F91300081F04000877170008000000000B
:10002000000000000000000000000000FF130008B6
:100030002104000800000000FD130008011400085E
:10004000430200084302000843020008430200087C
:10005000430200084302000843020008430200086C
:10006000430200084302000823040008430200087A
:10007000430200084302000843020008430200084C
:10008000430200084302000843020008430200083C
:10009000430200084302000843020008430200082C
:1000A000430200084302000843020008430200081C
:1000B000430200084302000843020008430200080C
:1000C00043020008430200084302000843020008FC
:1000D00043020008430200084302000843020008EC
:1000E00043020008430200084302000843020008DC
:1000F00043020008430200084302000843020008CC
:1001000043020008430200084302000843020008BB
:1001100043020008430200084302000843020008AB
:10012000430200084302000843020008430200089B
:10013000430200084302000843020008430200088B
:10014000430200084302000843020008430200087B
:10015000430200084302000843020008430200086B
:10016000430200084302000843020008430200085B
:100170004302000843020008430200080000000098
:10018000430200084302000800F002F800F03CF8C7
:100190000AA090E8000C82448344AAF10107DA45E2
:1001A00001D100F031F8AFF2090EBAE80F0013F0F8
:1001B000010F18BFFB1A43F001031847F4190000A0
:1001C000141A0000103A24BF78C878C1FAD8520730
:1001D00024BF30C830C144BF04680C6070470000C1
:1001E0000023002400250026103A28BF78C1FBD840
:1001F000520728BF30C148BF0B6070471FB501F0E0
:10020000C9FC1FBD10B510BD00F0CFF81146FFF7B7
:10021000F5FF01F0F1FA00F0EDF803B4FFF7F2FF9B
:1002200003BC00F0F5F80000094880470948004782
:10023000FEE7FEE7FEE7FEE7FEE7FEE7FEE7FEE796
:10024000FEE7FEE704480549054A064B70470000F3
:100250009514000889010008000100200007002013
:10026000000300200003002053EA020C00F0698024
:100270002DE9F04B4FF00006002B1FBFB3FA83F5BA
:1002800003FA05F424FA05F65E4012BF1643B2FAEB
:1002900082F502FA05F4C5F120051EBF22FA05FC1D
:1002A00044EA0C04203556EA044C4FEA144418BFC3
:1002B000641C4FF000084FF00009904271EB030CF2
:1002C00039D3002919BFB1FA81F701FA07F6B0FA5C
:1002D00080F700FA07F6C7F120071EBF20FA07FCD7
:1002E00046EA0C062037B6FBF4FCA7EB0507103FE7
:1002F00007F01F0BCBF120060CFA0BFB2CFA06F6CD
:1003000044BFB3460026202FA4BF5E464FF0000B2B
:100310005BEA060C08BF4FF0010B19EB0B09ABFBB6
:10032000027C48EB0608C01B06FB02CC0BFB03CC8F
:1003300071EB0C01C1E70B46024641464846BDE859
:10034000F08B13B54FF000004FF00001AFF30080C9
:10035000BDE81C4070474FF0000200B513469446BC
:100360009646203922BFA0E80C50A0E80C50B1F10D
:100370002001BFF4F7AF090728BFA0E80C5048BF21
:100380000CC05DF804EB890028BF40F8042B08BFBF
:10039000704748BF20F8022B11F0804F18BF00F8BB
:1003A000012B7047704770477047754600F02CF876
:1003B000AE4605006946534620F00700854618B052
:1003C00020B5FFF73FFFBDE820404FF000064FF09B
:1003D00000074FF000084FF0000B21F00701AC467A
:1003E000ACE8C009ACE8C009ACE8C009ACE8C00999
:1003F0008D46704710B50446AFF300802046BDE837
:100400001040FFF70ABF000000487047A00000201E
:1004100001491820ABBEFEE7260002007047FEE748
:100420007047102000F016B872B6FEE770B50446AB
:1004300000F01EF90546601C02D004480078044410
:1004400000F016F9401BA042FAD370BD0000002056
:1004500070470000044910B50A68024202D00860E3
:10046000FFF7F6FF10BD0000143C01402DE9F84FE6
:10047000DFF8BCA10022012503264FF00F090AF185
:10048000040BAAF1040E00BF0B6805FA02F4234026
:10049000A34270D10F7907F00307012F01D0022F7B
:1004A00016D187684FEA420806FA08FC27EA0C07CB
:1004B000D1F80CC00CFA08FC4CEA070CC0F808C0D4
:1004C0004768A7430C79C4F3001494403C4344604C
:1004D0000C79E443A4070AD0C4684FEA420C06FA38
:1004E0000CF7BC438F6807FA0CF72743C7600C79F9
:1004F00004F00304022C12D1D40800EB840CDCF8C5
:1005000020405707FF0E09FA07F824EA0804D1F83B
:10051000108008FA07F848EA0408CCF8208004683C
:100520004FEA420C06FA0CF7BC430F7907F00307B9
:1005300007FA0CF7274307604C6814F4403F70D06B
:100540003C4C276847F480472760246822F0030763
:1005500004F480440094384C07EB040CDCF80848A1
:1005600097074FEA177809FA08F7BC43334FB842A8
:1005700002D1002724E054E0314FB84201D10127D5
:100580001EE0304FB84201D1022719E02E4FB84289
:1005900001D1032714E02D4FB84201D104270FE009
:1005A0002B4FB84201D105270AE02A4FB84201D1AA
:1005B000062705E0284FB84201D1072700E00827A9
:1005C00007FA08F72743CCF80878DAF800405746CE
:1005D000D1F804C09C435FEACC2C00D51C433C609E
:1005E000DBF800405F46D1F804C09C435FEA8C2CE6
:1005F00000D51C433C60DEF800407746D1F804C0CB
:100600009C435FEA8C3C00D51C433C60084F083F8C
:100610003C68D1F804C09C435FEACC3C00D51C4345
:100620003C60521C102AFFF42FAFBDE8F88F000089
:10063000083C0140443802400030014000000240C4
:100640000004024000080240000C0240001002407A
:100650000014024000180240001C024000690840DB
:1006600000D0012070470AB1816170470904FBE79F
:10067000014880687047000000000020024881683F
:100680000278114481607047000000200B4810B5CB
:10069000016841F400710160016841F4806101600A
:1006A000016841F480710160032000F06FF80F20B1
:1006B00000F006F800F024F8002010BD003C0240D5
:1006C00070B50D4D04464FF47A712878B1FBF0F007
:1006D0000A490968B1FBF0F000F0ECFA48B9102CB7
:1006E00007D200222146501E00F030F800206C6036
:1006F00070BD012070BD0000000000200C00002033
:100700000A4808B5016841F480410160006800F4BE
:10071000804000900548001F016841F08051016051
:10072000006800F08050009008BD0000443802408E
:10073000002809DB00F01F020121914040098000E0
:1007400000F1E020C0F8001170470000F0B40E4B3B
:100750001B680C46C3F30223C3F10705042D00D91F
:100760000425191D072901D2002300E0DB1E012604
:1007700006FA05F1491E214099409E40761E16401A
:100780003143F0BC00F0F8BF0CED00E0064900F08A
:10079000070208684FF6FF03184040EA0220034AA8
:1007A00010430860704700000CED00E00000FA05FF
:1007B0002DE9F0470E46050065D0DFF81481D8F822
:1007C0000000F7B200F00700B04207D288F80070CE
:1007D000D8F8000000F00700B04254D128683D4C22
:1007E000810712D5400703D5206840F4E05020600F
:1007F0002878000703D5206840F460402060206816
:10080000A96820F0F000084320602878C0072DD0A8
:10081000304968680839012812D0022813D003280B
:1008200011D00968890700292DDA216821F0030118
:1008300001432160FFF71CFF814641F2883A0EE038
:1008400009688903EFE709688901ECE7FFF710FF02
:10085000A0EB0901514502D90320BDE8F0872068CB
:10086000696800F00C00B0EB810FEFD1D8F80010F0
:10087000404601F00701B14207D90770006800F057
:100880000700B04201D00120E7E72878400705D5EE
:100890002068E96820F4E0500843206028780007C9
:1008A00006D52068296920F4604040EAC100206034
:1008B00000F018F82168084AC1F30311515CC840E0
:1008C0000649086006480068FFF7FAFE0020C4E702
:1008D000003C0240083802409E1B00080C0000202B
:1008E00004000020154810B5006810F00C021448F0
:1008F00013D01449042A0FD0082A0ED10F4C241FFC
:100900002268236802F03F025B0207D52068C0F32B
:100910008810A0FB010106E0084610BD2168C1F364
:100920008811A1FB00010023FFF79EFC2168C1F3A1
:100930000141491C4900B0FBF1F010BD08380240EC
:100940000024F40040787D012DE9F84F04006ED0BA
:100950002078DFF84C93C007A9F104054AD009F1CB
:1009600004000168C1F38101012908D00068C0F3C7
:10097000810002280AD1D9F80000400206D5286873
:10098000800337D560680028E1D033E06068B0F5B7
:10099000803F10D0B0F5A02F286810D020F4803010
:1009A0002860286820F4802028606068A8B1FFF7DC
:1009B0005FFE06460DE0286840F48030F4E740F41E
:1009C00080202860F7E700BFFFF752FE801B6428F5
:1009D00073D828688003F7D50CE0FFF749FE064678
:1009E00005E000BFFFF744FE801B6428F0D82868AC
:1009F0008003F7D42078DFF8AC8280074FF0000A3C
:100A00003ED5A748001D016811F00C0F08D0006802
:100A1000C0F3810002280BD1D9F80000400207D4AE
:100A20002868800716D5E068012800D112E033E17C
:100A3000E068B8B10120C8F80000FFF719FE0646CB
:100A400005E000BFFFF714FE801B0228C0D828680D
:100A50008007F7D52868216920F0F80040EAC10036
:100A600028600DE0C8F800A0FFF702FE064604E08B
:100A7000FFF7FEFD801B02281FD828688007F7D4E7
:100A80002078000722D5864F87486169703771B199
:100A900001210160FFF7ECFD064604E0FFF7E8FDE9
:100AA000801B022809D838688007F7D50EE0C0F807
:100AB00000A0FFF7DDFD064605E082E0FFF7D8FD68
:100AC000801B02287DD838688007F7D4207840073B
:100AD00068D5DFF8CCB100270BF13C0BDBF8000048
:100AE000C0000BD4DBF8001041F08051CBF80010AF
:100AF000DBF80000012700F0805000906B4E30685A
:100B0000C00510D4306840F480703060FFF7B0FD4D
:100B1000009005E0FFF7ACFD0099401A022850D87C
:100B20003068C005F6D55E4EA0686C3601280FD03F
:100B30000528306810D020F001003060306820F0C7
:100B400004003060A068B8B1FFF792FD00900FE09C
:100B5000306840F00100F4E740F004003060F7E74F
:100B6000FFF786FD0099411A41F28830814266D82C
:100B700030688007F4D50EE0FFF77AFD009007E0BB
:100B8000FFF776FD0099411A41F28830814256D82C
:100B900030688007F4D42FB1DBF8001021F08051C9
:100BA000CBF80010A069C8B33D49091D0968C1F31D
:100BB000810102294AD00228504607D0C8F86000B7
:100BC00000E03CE0FFF754FD04463BE04746C8F830
:100BD0006000FFF74DFD064605E000BFFFF748FD4A
:100BE000801B02282BD828688001F7D4D4E907019C
:100BF0000843A16A2E4A490802EB0141626A41EAB0
:100C00008211084394F82C1040EA0161C9F80010E1
:100C100001203866FFF72CFD044606E03EE000BFE9
:100C2000FFF726FD001B022809D828688001F7D5A8
:100C300034E000BFFFF71CFD001B022802D903208F
:100C4000BDE8F88F28688001F4D427E00128F7D0A8
:100C5000D9F80000E26900F4800191421CD1226AB7
:100C600000F03F01914217D147F6C071626A01401E
:100C7000B1EB821F10D1A26A4FF0FF3300F4403174
:100C800003EB5202B1EB024F06D194F82C1000F0A6
:100C90007060B0EB016F01D00120D1E70020CFE7F9
:100CA0000438024000004742800E47420070004076
:100CB0000000FFFF10B5401EB0F1807F01D301207E
:100CC00010BD4FF0E02460610F21601700F054FD6B
:100CD0000020A06107202061002010BD70B590F8B1
:100CE0003C20012A32D0012480F83C40022280F8C6
:100CF0003D2003685A689D6822F070060A683243F6
:100D00005A60134B02689A4214D0B2F1804F11D04E
:100D1000104B9A420ED0104B9A420BD00F4B9A4276
:100D200008D00F4B9A4205D00E4B9A4202D00E4B80
:100D30009A4204D1496825F080031943916080F8F4
:100D40003D40002180F83C10084670BD022070BD77
:100D5000000001400004004000080040000C00407A
:100D600000040140004001400018004010B504009C
:100D700003D094F83D0010B107E0012010BD002021
:100D800084F83C00204600F01FF8022084F83D0063
:100D9000211D206800F086FB012084F8460084F8BD
:100DA0003E0084F83F0084F8400084F8410084F855
:100DB000420084F8430084F8440084F8450084F835
:100DC0003D00002010BD000008B50068B0F1804F64
:100DD00008D10548016841F001010160006800F098
:100DE0000100009008BD00004038024070B5044684
:100DF00090F83C000025012817D0012684F83C60BB
:100E0000022084F83D002068826822F0770222F4F4
:100E10007F4282600868502838D00DDC20284FD0EF
:100E200005DC90B3102811D14AE0022070BD3028B3
:100E300046D040280AD13BE060282FD070280DD042
:100E4000B0F5805F03D0B0F5005F12D0012584F8C3
:100E50003D60002084F83C00284670BDCB68D1E995
:100E60000121206800F08FFB2068816841F0770144
:100E700009E0CB68D1E90121206800F084FB2068FB
:100E8000816841F480418160E1E719E0CA684968FE
:100E9000206800F04DFC5021206806E0CA684968CF
:100EA000206800F056FC6021206800F076FBCEE759
:100EB000CA684968206800F03BFC40212068F4E7DC
:100EC000226801461046F0E710B586B004461421AA
:100ED0006846FFF740FA2368002117480222B3F161
:100EE000804F17D0154CA34212D1036843F0020380
:100EF0000360006800F002000590C0200090CDE97A
:100F00000121CDE903120E48694600BFFFF7AEFA92
:100F100006B010BD036843F001030360006800F0F1
:100F20000100059003200090CDE901210120CDE9C9
:100F3000031069460348E9E73038024000080040E2
:100F4000000402400000024070B5044690F83C00E6
:100F500000260D4601280FD0012084F83C006AB11C
:100F6000042A1DD0082A2FD00C2A3FD001260020A9
:100F700084F83C00304670BD022070BD206800F04F
:100F800015FB2068816941F0080181612068816951
:100F900021F004018161206881692A69114311E00F
:100FA000206800F033FB2068816941F400618161B1
:100FB0002068816921F480618161206881692A69E2
:100FC00041EA02218161D2E7206800F055FB2068E8
:100FD000C16941F00801C1612068C16921F00401C3
:100FE000C1612068C1692A69114311E0206800F0DD
:100FF00077FB2068C16941F40061C1612068C16963
:1010000021F48061C1612068C1692A6941EA022135
:10101000C161ACE710B5040003D094F83D0010B1F5
:1010200007E0012010BD002084F83C00204600F0BD
:101030001FF8022084F83D00211D206800F032FADC
:10104000012084F8460084F83E0084F83F0084F8CC
:10105000400084F8410084F8420084F8430084F89A
:10106000440084F8450084F83D00002010BD0000D5
:1010700008B500680649884208D10648016841F071
:1010800004010160006800F00400009008BD000049
:10109000000800404038024010B50446022249B121
:1010A00004290ED0082913D094F84100012816D045
:1010B000012010BD94F83E000128F9D184F83E20AB
:1010C0000FE094F83F000128F2D184F83F2008E0B7
:1010D00094F840000128EBD184F8402001E084F826
:1010E00041200122206800F041FA16492068164A82
:1010F000884201D0904203D1436C43F400434364DF
:101100002068884213D0B0F1804F10D00F49884238
:101110000DD00F4988420AD00E49884207D090422C
:1011200005D00D49884202D00C49884204D181681B
:1011300001F00701062903D0016841F001010160B7
:10114000002010BD000001400004014000040040E8
:1011500000080040000C0040004001400018004022
:10116000FEE700002DE9F04186B014216846FFF744
:10117000F2F850480024016841F020010160016844
:1011800001F020010591016841F0800101600168D2
:1011900001F080010591016841F0010101600168E1
:1011A00001F001010591016841F040010160016811
:1011B00001F040010591016841F0040101600168FE
:1011C00001F004010591016841F008010160016826
:1011D00001F008010591016841F002010160006819
:1011E000354E00F0020005900022FF213046FFF747
:1011F0003AFA324F002219213846FFF734FADFF865
:10120000C080002220214046FFF72DFA10200090D8
:101210004FF48810CDE9010469462A48FFF726F902
:10122000FF2000900125CDE9015469463046039422
:10123000FFF71CF94FF4C050CDE90004694622487D
:101240000294FFF713F919200090CDE90154694683
:1012500038460394FFF70AF9A220CDE90004694655
:1012600038460294FFF702F94FF42A40CDE9000412
:10127000694630460294FFF7F9F84FF44470CDE91F
:101280000004694640460294FFF7F0F820200090E1
:10129000CDE90154694640460394FFF7E7F8002280
:1012A00011460A20FFF752FA0A20FFF741FA06B06A
:1012B000BDE8F0813038024000180240000C0240C6
:1012C00000040240001402400008024010B58EB035
:1012D00000240794089409940A940B941C216846EE
:1012E0000C94FFF738F823484FF08041016040F23A
:1012F000CF21C0E9011440F2CF71C0E9031480216D
:101300008161FFF733FD08B1FFF78EF84FF480508D
:10131000079007A91748FFF769FD08B1FFF784F8A0
:101320001448FFF777FE08B1FFF77EF80B940BA97E
:1013300010480C94FFF7D2FC08B1FFF775F8602055
:10134000CDE900040294002269460A480494FFF79C
:10135000FBFD08B1FFF768F8042269460548FFF76E
:10136000F3FD08B1FFF760F80248FFF7ADFD0EB0DE
:1013700010BD00001000002010B58AB000240794B2
:101380001C2168460894FEF7E6FF1A4818490160D8
:101390004721C0E9011440F2E731C0E90314846138
:1013A000FFF738FE08B1FFF73FF8079407A9114887
:1013B0000894FFF793FC08B1FFF736F86020CDE9F9
:1013C00000040294002269460A480494FFF7BCFD19
:1013D00008B1FFF729F8042269460648FFF7B4FD73
:1013E00008B1FFF721F80348FFF76EFD0AB010BD02
:1013F0000008004058000020FEE7FEE770477047F5
:10140000FFF73CB930B593B030216846FEF7A3FF33
:1014100014210CA8FEF79FFF1C480024016841F02E
:1014200080510160006800F08050119018480168F8
:1014300041F4804101600068022500F48040119071
:101440000120039010200490009506950820CDE916
:1014500007404820CDE9090504200B906846FFF7B6
:1014600073FA08B172B6FEE70F20CDE90C054FF410
:101470008050CDE90E4002210CA81094FFF798F996
:10148000002801D072B6FEE713B030BD40380240EC
:10149000007000400248016841F47001016070472B
:1014A00088ED00E0F0B50268254C264D264E274F0A
:1014B000274B4FF0804CA04209D0604507D0A8428E
:1014C00005D0B04203D0B84201D0984204D122F0F6
:1014D000700E4A6842EA0E02A0421BD0604519D045
:1014E000A84217D0B04215D0B84213D0984211D0BC
:1014F000184DA8420ED0184DA8420BD0174DA84247
:1015000008D0174DA84205D0164DA84202D0164D5E
:10151000A84203D122F44075CA682A434D6922F0DB
:1015200080022A4302608A68C2620A688262A0421C
:1015300001D0984201D10969016301214161F0BDE7
:10154000000001400004004000080040000C004082
:1015500000040140004001400044014000480140B7
:1015600000180040001C00400020004010B501F0B1
:101570001F030121046A99408C430462016A9A4066
:101580001143016210BD10B5846842EA032224F4BD
:101590007F440A432243826010BD826822F07002B9
:1015A0000A4342F00701816070470000F0B5026A0B
:1015B00022F001020262036A42688469124E24F03A
:1015C00073050C682C4323F002058B682B430D4DEB
:1015D000A84201D0B04205D123F00807CB683B43B5
:1015E00023F00403A84201D0B04205D14D6922F492
:1015F000407215438A692A434260846149684163A5
:101600000362F0BD0000014000040140F0B5026A31
:1016100022F010020262026A436884690D6824F4B1
:10162000E64444EA05248D6822F0200242EA0512CD
:101630000F4D104EA84201D0B04206D1CF6822F023
:10164000800242EA071222F04002A84201D0B042D2
:1016500007D14D6923F4406343EA85038D6943EA6A
:10166000850343608461496881630262F0BD0000C4
:101670000000014000040140F0B5026A22F48072CB
:101680000262026A4368C46922F4007224F073059E
:101690000C68124E2C438D6842EA05220E4DA8427A
:1016A00001D0B04206D1CF6822F4006242EA07229C
:1016B00022F48062A84201D0B04207D14D6923F4E0
:1016C000405343EA05138D6943EA05134360C4613F
:1016D0004968C1630262F0BD00000140000401409E
:1016E00030B5026A22F480520262046A4268C36919
:1016F0000D6823F4E64343EA05238D6824F400547F
:1017000044EA0534084DA84202D0084DA84204D14D
:101710004D6922F4804242EA85124260C361496801
:101720000164046230BD000000000140000401407B
:1017300010B5036A046A24F001040462846924F089
:10174000F00444EA021423F00A020A4384610262AC
:1017500010BD10B5036A23F0100303628369046AA5
:1017600023F4704343EA023224F0A00343EA011158
:101770008261016210BDFEE70907090E002804DB43
:1017800000F1E02080F80014704700F00F0000F135
:10179000E02080F8141D704710B5002220210A486F
:1017A000FEF761FF094C002201212046FEF75BFF96
:1017B000002208212046FEF756FF20460022BDE801
:1017C00010401021FEF74FBF00040240000C024001
:1017D00010B5084C3220216848632168FA208863DC
:1017E0008000FEF723FE216896204863216864206C
:1017F000886310BD10000020FEF748FFFFF702FECF
:10180000FFF7B0FCFFF762FDFFF7B6FDFFF7C4FF7F
:1018100000F032F800F018F80A4D4FF4807441F2ED
:10182000883621462846FEF719FF012806D00720F2
:1018300000F050F83046FEF7F9FDF2E7FFF7C8FF79
:10184000F8E700000004024010B500210848FFF747
:1018500023FC04210648FFF71FFC00210548FFF781
:101860001BFCBDE8104004210248FFF715BC000036
:10187000100000205800002010B5154C0122114620
:101880002046FEF7F0FE012202212046FEF7EBFE85
:10189000012204212046FEF7E6FE0122082120460F
:1018A000FEF7E1FE012210212046FEF7DCFE0122B8
:1018B00020212046FEF7D7FE012240212046FEF7D8
:1018C000D2FE20460122BDE810408021FEF7CBBEAB
:1018D0000018024010B5AE4C01283DD0022869D056
:1018E00003287DD004287CD005287BD006287AD018
:1018F000072879D1012211462046FEF7B4FE0122C5
:1019000002212046FEF7AFFE012204212046FEF709
:10191000AAFE012208212046FEF7A5FE0122102181
:101920002046FEF7A0FE012220212046FEF79BFE66
:10193000012240212046FEF796FE0022802120460B
:10194000FEF791FE1E20FEF771FD01228021204648
:10195000BDE81040FEF787BE002201212046FEF7B9
:1019600082FE012202212046FEF77DFE0122042193
:101970002046FEF778FE012208212046FEF773FE7E
:10198000012210212046FEF76EFE01222021204672
:10199000FEF769FE012240212046FEF764FE012287
:1019A00080212046FEF75FFE1E20FEF73FFD01224C
:1019B0001146CCE7012211462046FEF754FE0022D4
:1019C00002212046FEF74FFE012204212046FEF7A9
:1019D0004AFE012208212046FEF745FE012204E0CE
:1019E0001CE049E076E0A3E0D0E010212046FEF7BD
:1019F0003AFE012220212046FEF735FE0122402139
:101A00002046FEF730FE012280212046FEF72BFE05
:101A10001E20FEF70BFD0122022198E7012211464C
:101A20002046FEF720FE012202212046FEF71BFE83
:101A3000002204212046FEF716FE0122082120463E
:101A4000FEF711FE012210212046FEF70CFE0122B6
:101A500020212046FEF707FE012240212046FEF706
:101A600002FE012280212046FEF7FDFD1E20FEF72A
:101A7000DDFC012204216AE7012211462046FEF71F
:101A8000F2FD012202212046FEF7EDFD0122042194
:101A90002046FEF7E8FD012208212046FEF7E3FD7F
:101AA000002210212046FEF7DEFD012220212046E3
:101AB000FEF7D9FD012240212046FEF7D4FD012288
:101AC00080212046FEF7CFFD1E20FEF7AFFC01224D
:101AD00010213CE7012211462046FEF7C4FD0122F9
:101AE00002212046FEF7BFFD012204212046FEF719
:101AF000BAFD012208212046FEF7B5FD0122102182
:101B00002046FEF7B0FD002220212046FEF7ABFD67
:101B1000012240212046FEF7A6FD01228021204619
:101B2000FEF7A1FD1E20FEF781FC012220210EE719
:101B3000012211462046FEF796FD01220221204691
:101B4000FEF791FD012204212046FEF78CFD0122C3
:101B500008212046FEF787FD012210212046FEF7CE
:101B600082FD012220212046FEF77DFD002240213A
:101B70002046FEF778FD012280212046FEF773FD06
:101B80001E20FEF753FC01224021E0E610BD0000BC
:101B9000001802404FF04070E1EE100A704700005C
:101BA000000000000000010203040607080900000D
:101BB000D01B00080000002010000000C401000835
:101BC000E01B000810000020F0060000E001000803
:101BD0000100000010000000000000000024F400DC
:040000050800018965
:00000001FF
